:020000040800F2
:1000000000000220B9020008BF020008C302000875
:1000100035030008390300088103000800000000D0
:10002000000000000000000000000000C9030008FC
:10003000CD03000800000000D1030008D50300082C
:10004000E5030008E5030008E5030008E5030008F0
:10005000E5030008E5030008E5030008E5030008E0
:10006000E5030008E5030008E5030008E5030008D0
:10007000E5030008E5030008E5030008E5030008C0
:10008000E5030008E5030008E5030008E5030008B0
:10009000E5030008E5030008E5030008E5030008A0
:1000A000E5030008E5030008E5030008E503000890
:1000B000D10C0008E5030008E5030008E50300088B
:1000C000E5030008E5030008E5030008E503000870
:1000D000E5030008E5030008E5030008E503000860
:1000E000E5030008E5030008E5030008E503000850
:1000F000E5030008E5030008E5030008E503000840
:10010000E5030008E5030008E5030008E50300082F
:10011000E5030008E5030008E5030008E50300081F
:10012000E5030008E5030008E5030008E50300080F
:10013000E5030008E5030008E5030008E5030008FF
:10014000E5030008E5030008E5030008E5030008EF
:10015000E5030008E5030008E5030008E5030008DF
:10016000E5030008E5030008E5030008E5030008CF
:10017000E5030008E5030008E503000800000000AF
:10018000E5030008E503000800B583B000F046FA77
:10019000384B394A1360394A1360394906E052F83E
:1001A000041B43F8041B9842F9D86146354B994229
:1001B00005D20A684B6801F10C0C8868F3E72E4BF6
:1001C0001A68314B9A4200D0FEE72C4B1A682F4B2D
:1001D0009A42F9D1274B2E4A13602E4A13602E4AB9
:1001E00000E002462D4B9A4209D2104650F8083BD7
:1001F00051689942F5D9002243F8042BF9E7244BC2
:100200001B6813B9234B1B6803B1FEE700F012FA19
:10021000694601A800F020F9214C224BE41AA410F1
:10022000002504E01F4B53F8253098470135AC42B8
:10023000F8DC1D4C1D4BE41AA410002504E01B4BF8
:1002400053F8253098470135AC42F8DC0099019805
:1002500000F0C2FC0546164C164BE41AA41004E04C
:10026000013C144B53F824309847002CF8DC284606
:1002700000F0CEF8BABADECA00000020600000200C
:10028000E8030008000400087856341232547698C7
:1002900064000020CC0100200004000810040008C5
:1002A00010040008100400081004000810040008DE
:1002B000100400081004000808B5FFF765FF00BE31
:1002C000FEE71EF0040F0CBFEFF30880EFF3098088
:1002D0007146414A10472DE9F04182B004460D466F
:1002E000124B5F6BD3F838809E6A1B6B13F0020FC2
:1002F00003D00E4BDB6A002B0BDB0D4800F0EAF855
:10030000009543463A463146204600F0FDF800BECF
:10031000FEE74BF6AB6100F071F90028EDD0034B1E
:100320004FF00042DA6202B0BDE8F08100ED00E07B
:100330007C18000800BEFEE71EF0040F0CBFEFF3B0
:100340000880EFF309807146244A10472DE9F041F7
:1003500082B004460D46084B5F6BD3F838809E6A26
:10036000064800F0B7F8009543463A463146204625
:1003700000F0CAF800BEFEE700ED00E08C180008AF
:100380001EF0040F0CBFEFF30880EFF309807146F5
:10039000134A10472DE9F04182B004460D46084B40
:1003A0005F6BD3F838809E6A064800F093F800959A
:1003B00043463A463146204600F0A6F800BEFEE726
:1003C00000ED00E09818000800BEFEE700BEFEE762
:1003D00000BEFEE770470000D70200084D0300088A
:0803E0009503000800BEFEE7D2
:1003E800C81900080000002064000020C81900088F
:1003F800000000100000001064000020D001002060
:080408000000001000000010CC
:10041000FEE7000008B503460C4A12685AB10B4AC1
:100420001068033323F003030344094A934206D8B8
:10043000064A136008BD054A06491160EFE700F05F
:10044000E9FC0C2303604FF0FF30F3E76800002065
:1004500000FC0120D001002001230360014B0B6050
:10046000704700BF040000202DE9F04385B004462A
:100470000F4643563BBB042528462146ABBE0546E6
:10048000384605B0BDE8F08314F901CB03F1100242
:100490006A4402F810CC0133AB42F5D310336B44FD
:1004A000002203F8102C4FF00408E9464046494664
:1004B000ABBE8046761B002EE2D03546102E28BFFC
:1004C00010250023E8E70E46F5E708B5FFF7CCFF57
:1004D00008BD00000FB400B583B004AB53F8042B83
:1004E00001938021074800F087FC002804DC03B05A
:1004F0005DF804EB04B0704701460248FFF7E5FFE2
:10050000F5E700BF74000020F8B504460D46174615
:100510001E462748FFF7DEFF21682648FFF7DAFF6F
:1005200061682548FFF7D6FFA1682448FFF7D2FF8E
:10053000E1682348FFF7CEFF21692248FFF7CAFF91
:1005400061692148FFF7C6FFA1692048FFF7C2FF94
:10055000E1691F48FFF7BEFF1E48FFF7BBFF2946B2
:100560001D48FFF7B7FF1D4CE16A1D48FFF7B2FFBA
:10057000216B1C48FFF7AEFFE16B1B48FFF7AAFF9A
:1005800015F0800F0AD115F4004F0CD11748FFF772
:10059000A1FF06991648FFF79DFFF8BD394615489B
:1005A000FFF798FFEFE731461348FFF793FFEDE7BA
:1005B00060170008701700088017000890170008DF
:1005C000A0170008B0170008C0170008D0170008CF
:1005D000E0170008F0170008FC17000800ED00E025
:1005E0000C1800081C1800082C1800085C180008DB
:1005F000641800083C1800084C18000883691A8821
:100600008A4201D0002070470268033A012A01D9CA
:1006100000207047023383610120704708B500F065
:100620000DF8024A024B9A6008BD00BF00000008A6
:1006300000ED00E008B500F009F808BD024B4FF0EE
:1006400000629A60704700BF00ED00E0224B9B689B
:1006500003F00C03042B11D0082B13D0002B37D13F
:100660001E4B1F4A1A601C4B9B68C3F303131D4AA1
:10067000D15C1A4A1368CB4013607047174B1A4A73
:100680001A60F0E7144B59685A6802F03F0211F4FF
:10069000800F13D0144BB3FBF2F30F4A5268C2F32E
:1006A000881202FB03F30C4A5268C2F30142013282
:1006B0005200B3FBF2F3094A1360D4E7084BB3FBD3
:1006C000F2F3054A5268C2F3881202FB03F3EAE729
:1006D000024B034A1A60C6E7003802400C000020B3
:1006E0000024F400BC18000800127A0030B403683B
:1006F000504A93421ED0504A934253D04F4A93429D
:1007000057D04F4A93425BD04E4A93425FD04E4AF5
:10071000934263D04D4A934267D04D4A93426BD087
:100720004C4A93420CD102F5C052136B43F48073D0
:10073000136305E002F56052136B43F0010313638A
:1007400003795B0005682C6803229A40D14324EAB0
:1007500002022A6005682C68427902F003029A407E
:1007600022432A604279013AD2B2012A4BD9046865
:10077000A2680A40A2600568AC68C27902F0030270
:100780009A402243AA600268D4682140D16004687C
:10079000E168027A02F0030202FA03F30B43E3601A
:1007A00030BC704702F55052136B43F002031363E1
:1007B000C6E702F54052136B43F004031363BFE72F
:1007C00002F53052136B43F008031363B8E702F5E8
:1007D0002052136B43F010031363B1E702F510527C
:1007E000136B43F020031363AAE702F50052136B67
:1007F00043F040031363A3E702F5E052136B43F0A9
:10080000800313639CE705686A6890F804C00124BC
:1008100004FA0CF422EA04026A6005686C688279C2
:1008200002F0010290F804C002FA0CF222436A605E
:100830009DE700BF000002400004024000080240A3
:10084000000C024000100240001402400018024058
:10085000001C024000200240026901238B401A4222
:1008600014BF01200020704770B50E461546094C94
:100870006FF05A01204600F079FA0221204600F07C
:1008800075FA71B2204600F071FA69B2204600F0A4
:100890006DFA70BD0044004070B51C4B9D78DC784B
:1008A0001B4B1C4A5A6002F188325A601A4E6FF094
:1008B0005A01304600F05AFA0121304600F056FA4B
:1008C0000021304600F052FA01E0013C0135BCB194
:1008D0000F4BDB6813F4803FF7D10D4B1A6942F0E0
:1008E00002021A611A6942EAC5021A611A6942F4DF
:1008F00080321A61064BDB6813F4803FFAD1E4E7DB
:10090000034A136943F00043136170BDF4000020F3
:10091000003C0240230167450044004000B583B01D
:1009200002AA02E903009DF80120FF2A0CD0012A47
:1009300016D00D4B1A6882F308880C4A93605B68E6
:10094000984703B05DF804FB094A1268B2F1FF3F13
:1009500008D0054A1268B2F1FF3FEBD1044BE9E73A
:10096000034BE7E7004BE5E70000040800ED00E07B
:10097000008000080346034A1068186012791A7153
:100980001846704700000E0882B0284B1B69002BE8
:1009900044DB264B1A6922F0F8021A611A6942F008
:1009A00058021A611A6942F002021A611A6942F485
:1009B00080321A611D4BDB6813F4803FFAD11B4B68
:1009C0001A6922F002021A611A6922F440721A614D
:1009D0001A6942F400721A611A6942F001021A613E
:1009E0008DF800008DF801100023ADF802308DF86D
:1009F00004300F4B009A1A60019A5A600B4BDB6867
:100A000013F4803FFAD1094B1A6922F001021A61EE
:100A10001A6942F000421A6102B07047034B054A5E
:100A20005A6002F188325A60B3E700BF003C0240CE
:100A300000000E082301674510B584B06B4683E8BB
:100A4000060090F802E0C3784EEA032E03794EEADE
:100A5000034E43794EEA036E0478043C24F0030409
:100A6000374B1B69002B0FDB354B1A6922F44072A0
:100A70001A611A6942F400721A611A6942F001029D
:100A80001A614FF0070C1BE02D4B2E4A5A6002F101
:100A900088325A60E8E7039BCEF80030284BDB68C9
:100AA00013F4803FFAD1264BDB6813F0010F02D01C
:100AB000234B0122DA600EF1040E0CF1040C043C0D
:100AC000002C0CDD4FF0FF3303930023032BE2DCFB
:100AD0000CEB0302815C03AAD1540133F6E7184BF7
:100AE0001A6922F001021A611A6942F000421A6181
:100AF000154C6FF05A01204600F038F901212046CC
:100B000000F034F90021204600F030F99DF8013062
:100B1000012B03D0022B0AD004B010BD9DF8002099
:100B2000012AF7D102210020FFF72EFFF4E79DF8FC
:100B30000030012BF0D101210020FFF725FFEBE76A
:100B4000003C0240230167450044004030B583B0BB
:100B500002AB03E903001D4C204600F01BF99DF990
:100B60000110204600F002F917E0184800F012F9D1
:100B7000174B585501352046431EDCB20028F4D1EE
:100B8000134B5B78562B17D0572B0ED0512B17D108
:100B9000002201210E48FFF767FE0C4800F0FAF82A
:100BA000C0B20B4B18700125E6E702AB13E9060053
:100BB0000748FFF741FFF0E70548FFF76DFEECE758
:100BC0000449024800F0D9F8E7E700BF00440040BC
:100BD000F4000020A818000880B598B000241694EE
:100BE0008DF85C4016A8FFF7C5FE13941494159475
:100BF000344C139401238DF8533002238DF8543074
:100C000013A8FFF773FD304B10AE93E8070086E89A
:100C100007000DAD03F10C0207CA85E807000DF1CE
:100C2000280C03F1180207CA8CE807000DF11C0913
:100C300003F1240207CA89E807000DF1100803F147
:100C4000300207CA88E8070001AF3C3393E8070089
:100C500087E807006046FFF749FD4846FFF746FD75
:100C60004046FFF743FD3846FFF740FD236A23F473
:100C70007F432362236A43F4EE432362134B5A6A91
:100C800022F47F425A625A6A42F4EE425A62304675
:100C900000F034F8284600F031F804E018AB13E90E
:100CA0000300FFF73BFE00210648FFF7D5FD0128B2
:100CB00003D09DF85830012BF0D118AB13E9030095
:100CC000FFF744FF00000240CC1800080004024077
:100CD0004FF080431B6913F0010F0CD04FF080429E
:100CE000136923F001031361034B1B681BB1024A14
:100CF0001368013B13607047BC0100200368194A68
:100D0000934221D0184A934225D04268530803F5F4
:100D1000740303F51053B3FBF2F3026893600268A7
:100D2000D36823F4B053D3600268D36823F00C0374
:100D3000D3600268D368017A0B43D3600268D3683A
:100D400043F40053D360704702F5FA32136C43F456
:100D500000331364D9E702F5F832136C43F48023AF
:100D60001364D2E70044004000480040036813F0D9
:100D7000800FFBD0C9B24160704738B505460C46BC
:100D800004E0013449B22846FFF7F0FF217800293A
:100D9000F7D138BD036813F0200FFBD0406840B294
:100DA000704730B51446002C9BB005461A4605DA4C
:100DB0008B2303604FF0FF301BB030BD4FF4027344
:100DC000ADF80C3014BF04F1FF33234602930593B2
:100DD0004FF6FF7300910491ADF80E3069461E9BEB
:100DE00000F07AF8431CBCBF8B232B60002CE3D0AF
:100DF000009B00221A70DFE707B5009313460A46EE
:100E0000014603480068FFF7CCFF03B05DF804FB20
:100E100010000020014B1868704700BF1000002030
:100E20002DE9F0478E681F46BE420B6882460C468D
:100E300090462DD8B1F90C2012F4906F26D0656938
:100E4000096905EB4505A3EB010905EBD5757B1C8D
:100E50004B446D109D4238BF1D46530527D529468A
:100E600000F058F9064660B321694A4600F018FCC4
:100E7000A38923F4906343F08003A3812661656115
:100E80004E44A5EB09052660A5603E46BE4200D94A
:100E90003E4620683246414600F082FBA3689B1B19
:100EA000A3602368334423600020BDE8F0872A460E
:100EB00000F048FB06460028E0D12169504600F0CA
:100EC000FDFB0C23CAF80030A38943F04003A38143
:100ED0004FF0FF30E9E700002DE9F04F98468B898D
:100EE0001B069DB007460D46144610D50B6973B915
:100EF000402100F00FF92860286130B90C233B60D5
:100F00004FF0FF301DB0BDE8F08F40236B61002330
:100F1000099320238DF82930CDF80C803023DFF899
:100F20009C818DF82A304FF0010923469A4613F828
:100F3000012B0AB1252AF9D1BAEB040B0BD05B4681
:100F4000224629463846FFF76BFF013000F0A780A4
:100F5000099A5A4409929AF80030002B00F09F80B9
:100F600000234FF0FF32CDE905230AF1010A049373
:100F700007938DF853301A935446052214F8011B39
:100F80004E4800F03DFB049AD8B9D00644BF202358
:100F90008DF85330110744BF2B238DF853309AF846
:100FA00000302A2B15D0079A544600204FF00A0C27
:100FB000214611F8013B303B092B4BD9B0B10792C8
:100FC00014E0A0EB080309FA03F313430493A246C9
:100FD000D2E7039B191D1B680391002BBBBF5B422B
:100FE00042F0020207930793B8BF049223782E2B96
:100FF0000AD163782A2B32D1039B1A1D1B680392F6
:1010000043EAE37302340593DFF8B4A021780322A6
:10101000504600F0F5FA38B1049BA0EB0A004022DC
:10102000824013430134049314F8011B25488DF8C2
:101030002810062200F0E4FA002836D0224B1BBB11
:10104000039B073323F0070308330393099B3344BF
:1010500009936AE70CFB02320C460120A8E7002343
:101060000134059319464FF00A0C204610F8012B65
:10107000303A092A03D9002BC6D00591C4E70CFBEE
:10108000012104460123F0E703AB00932A460F4BEE
:1010900004A93846AFF30080421C0646D6D1AB897E
:1010A0005B063FF52DAF09982CE703AB00932A466A
:1010B000064B04A9384600F01BF9EDE714190008A7
:1010C0001A1900081E19000800000000210E00086F
:1010D00070B50F4E0C463168054611B900F07AFA2A
:1010E00030602146284600F075FA431C03D14FF0CA
:1010F000FF34204670BDC41C24F00304A042F8D085
:10110000211A284600F066FA0130F2D1EFE700BF5D
:10111000C00100202DE9F843CD1C25F0030508355A
:101120000C2D38BF0C25002D064601DBA94204D941
:101130000C2333600020BDE8F883DFF8D48000F092
:10114000F5F9D8F800301C4644BB29463046FFF775
:10115000BFFF431C044658D1D8F800402746002F53
:1011600043D1002C4BD023683946304604EB0309A9
:1011700000F030FA814542D121686D1A2946304687
:10118000FFF7A6FF01303AD023682B442360D8F83C
:1011900000305A6862BBC8F800700FE02268521B2A
:1011A00020D40B2A17D96119A342256018BF5960B2
:1011B000636808BFC8F8001062514B60304600F009
:1011C000BBF904F10B00231D20F00700C21A1CBF5D
:1011D0001B1AA350AFE76268A3420CBFC8F80020F7
:1011E0005A60EBE723466468AEE73C467F68B6E7A3
:1011F0001A465B68A342FBD100235360DEE70C2351
:101200003360304600F098F994E70560D6E700BFF8
:10121000C40100202DE9F047164698468A680B69FC
:10122000DDF820909342B8BF1346336091F8432015
:1012300007460C460AB1013333602368990642BF62
:10124000336802333360256815F0060506D104F1D2
:10125000190AE36832689B1AAB4226DC94F84330E3
:101260002268003B18BF012392062BD404F14302ED
:1012700041463846C84701301ED02368226903F032
:101280000603042B02BFE5683368ED1AA3680CBFA0
:1012900025EAE57500259342C4BF9B1AED18002688
:1012A0001A34B5421AD1002008E0012352464146C3
:1012B0003846C847013003D14FF0FF30BDE8F08712
:1012C0000135C6E7E1185A1C302081F8430022445A
:1012D00094F8451082F843100233C7E701232246F1
:1012E00041463846C8470130E6D00136D9E700000C
:1012F0002DE9FF470F7E0C9E782F914680460C46C5
:101300009A4601F1430207D8622F0AD8002F00F055
:10131000D180582F00F0B88004F1420684F8427062
:101320003AE0A7F16303152BF6D801A151F823F099
:10133000891300089D1300081913000819130008E9
:1013400019130008191300089D1300081913000849
:101350001913000819130008191300089B1400083A
:10136000C7130008551400081913000819130008C2
:10137000BD14000819130008C7130008191300084A
:10138000191300085D14000833681A1D1B683260C9
:1013900004F1420684F8423001239CE0336820685F
:1013A000191D3160060601D51D6803E04506FBD511
:1013B000B3F90050002D03DA2D236D4284F8433039
:1013C00058480A2311E021683368080653F8045B83
:1013D00002D4490648BFADB26F2F5248336014BFE4
:1013E0000A230823002184F843106668A660002EB3
:1013F00005DB21682E4321F0040121604BD0164605
:10140000B5FBF3F103FB1157C75D06F8017D2F46CD
:10141000BB420D46F4D9082B0BD12368DF0708D552
:10142000236961689942DEBF302306F8013C06F16A
:10143000FF36921B2261CDF800A04B4603AA21463D
:101440004046FFF7E7FE01304AD14FF0FF3004B0CD
:10145000BDE8F087236843F02003236032487827F3
:1014600084F84570236831681F0651F8045B02D484
:101470005F0648BFADB23160D90744BF43F02003D7
:1014800023601DB11023ADE72648E9E7236823F068
:1014900020032360F6E71646BDE7336825686169D7
:1014A000181D30602E061B6801D5196002E0680621
:1014B000FBD51980002323611646BCE733681A1D4B
:1014C00032601E6862680021304600F099F808B169
:1014D000801B606063682361002384F84330AAE7BF
:1014E0002369324649464046D0470130ADD0236893
:1014F0009B0713D4E068039B9842B8BF1846A6E741
:101500000123324649464046D04701309DD001353F
:10151000E36803995B1AAB42F2DCEBE7002504F1C8
:101520001906F5E72519000836190008014800F0EA
:1015300061B800BFC8010020014800F05CB800BFDE
:10154000C80100202DE9F041074614460D4621B997
:10155000BDE8F0411146FFF7DDBD2AB900F0AEF855
:1015600025462846BDE8F08100F0F2F884420646A0
:1015700002D8B4EB500FF4D821463846FFF7CAFD25
:10158000804608B94546ECE7B4422246294628BFC2
:10159000324600F085F82946384600F08FF8F1E72A
:1015A000884210B501EB020402D98442234607D8D1
:1015B000431EA14208D011F8012B03F8012FF8E7D0
:1015C000024401468A4200D110BD13F8014D02F8D1
:1015D000014DF7E738B5064D0023044608462B6059
:1015E000FEF718FF431C02D12B6803B1236038BDFE
:1015F00070000020704770470000000000000000ED
:1016000001F0FF01102A2BDB10F0070F08D010F8B3
:10161000013B013A8B422DD010F0070F42B3F6D1B7
:10162000F0B441EA012141EA014122F007047FF0D0
:1016300000070023F0E80256083C85EA010586EA27
:10164000010685FA47F5A3FA87F586FA47F6A5FA63
:1016500087F68EB9EED1F0BC01F0FF0102F007026F
:1016600032B110F8013B013A83EA010313B1F8D11A
:101670000020704701387047002D06BF35460338FB
:10168000073815F0010F07D1013015F4807F02BF34
:10169000013015F4C03F0130F0BC0138704700BF85
:1016A0000A44914200F1FF3300D1704710B511F8A0
:1016B000014B03F8014F9142F9D110BD38B50546F1
:1016C000002941D051F8043C0C1F002BB8BFE4188E
:1016D000FFF72CFF1D4A136833B963601460284676
:1016E000BDE83840FFF728BFA34208D92068211879
:1016F0008B4201BF19685B6809182160EDE71A4643
:101700005B680BB1A342FAD911685018A0420BD103
:1017100020680144501883421160E0D118685B686A
:10172000536008441060DAE702D90C232B60D6E737
:10173000206821188B4204BF19685B68636004BF8E
:10174000091821605460CAE738BD00BFC4010020F9
:1017500051F8043C181F002BBCBF0B58C018704731
:10176000537461636B206672616D653A0A00000014
:10177000205230203D2020253038580A000000003B
:10178000205231203D2020253038580A000000002A
:10179000205232203D2020253038580A0000000019
:1017A000205233203D2020253038580A0000000008
:1017B00020523132203D20253038580A00000000E8
:1017C000204C52203D2020253038580A00000000CF
:1017D000205043203D2020253038580A00000000CA
:1017E00020505352203D20253038580A0000000078
:1017F0004653522F4641523A0A00000020434653B6
:1018000052203D2020253038580A000020484653F9
:1018100052203D2020253038580A000020444653ED
:1018200052203D2020253038580A000020414653E0
:1018300052203D2020253038580A0000204D4D46CA
:101840004152203D20253038580A000020424641B0
:1018500052203D2020253038580A00004D6973631E
:101860000A000000204C522F4558435F5245545502
:10187000524E3D20253038580A0000005B48617206
:10188000644661756C745D0A000000005B4275730C
:101890004661756C745D0A005B55736167654661EE
:1018A000756C745D0A000000496E636F7272656347
:1018B0007420434D4420436F64650A00000000001B
:1018C000000000000102030406070809004400406C
:1018D000802500000C00000000480040802500002A
:1018E0000C000000000002400202000300000000A3
:1018F0000000024003020003000000000004024058
:101900000A02000300000000000402400B02000372
:1019100000000000232D302B2000686C4C00656611
:101920006745464700303132333435363738394130
:101930004243444546003031323334353637383946
:101940006162636465660000100000000000000032
:10195000017A5200027C0E011B0C0D0010000000E9
:10196000180000000000000010000000000000004F
:101970001000000000000000017A5200027C0E01FD
:101980001B0C0D00380000001800000074FCFFFF65
:101990009E00000000510E1084048503860287011A
:1019A0005BC7C6C5C40E004C0A420B0A420B0E10A0
:1019B000840485038602870151C7C6C5C40E000092
:0819C00040FCFF7F0100000064
:1019C800785634126C000020000000000024F40057
:1019D8001400002000000000000000006800000063
:1019E800D00000000000000000000000000000001F
:1019F80000000000000000000000000000000000DF
:101A080000000000000000000000000000000000CE
:101A180000000000000000000000000000000000BE
:041A28003254769826
:040000050800018965
:00000001FF
