:020000040800F2
:100000000000022055020008590200085B020008A7
:100010007102000873020008890200080000000055
:100020000000000000000000000000009F02000827
:10003000A102000800000000A3020008A5020008B9
:10004000B9020008B9020008B9020008B9020008A4
:10005000B9020008B9020008B9020008B902000894
:10006000B9020008B9020008B9020008B902000884
:10007000B9020008B9020008B9020008B902000874
:10008000B9020008B9020008B9020008B902000864
:10009000B9020008B9020008B9020008B902000854
:1000A000B9020008B9020008B9020008B902000844
:1000B000D9060008B9020008B9020008B902000810
:1000C000B9020008B9020008B9020008B902000824
:1000D000B9020008B9020008B9020008B902000814
:1000E000B9020008B9020008B9020008B902000804
:1000F000B9020008B9020008B9020008B9020008F4
:10010000B9020008B9020008B9020008B9020008E3
:10011000B9020008B9020008B9020008B9020008D3
:10012000B9020008B9020008B9020008B9020008C3
:10013000B9020008B9020008B9020008B9020008B3
:10014000B9020008B9020008B9020008B9020008A3
:10015000B9020008B9020008B9020008B902000893
:10016000B9020008B9020008B9020008B902000883
:10017000B9020008B9020008B90200080000000036
:10018000B9020008B902000807B500F0B7F8274B1C
:100190002748834226D3274A274900208A422CD366
:1001A00000F0B8F8254D264C01A9684600F09EF8ED
:1001B000641BA4100026B44228DC224D224C641B90
:1001C000A4100026B44226DCDDE9000100F01CFA90
:1001D0001E4E1F4CA41B0546A410002C20DC2846F4
:1001E00000F080F8D3E900129C680C33891A94421D
:1001F000CFD9555815600432F9E752F8083B52F848
:10020000044C9C42CAD943F8040BFAE755F8043B66
:1002100098470136CFE755F8043B98470136D1E7B8
:10022000013C56F824309847D7E700BFBC020008CD
:10023000D4020008D4020008E4020008E402000826
:10024000E4020008E4020008E4020008E4020008F6
:10025000E402000814480047FEE71EF0040F0CBF3C
:10026000EFF30880EFF309807146104A1047FEE76C
:10027000FEE71EF0040F0CBFEFF30880EFF30980D8
:1002800071460B4A1047FEE71EF0040F0CBFEFF358
:100290000880EFF309807146064A1047FEE7FEE743
:1002A000FEE7FEE770470000890100086F020008C2
:0A02B000870200089D020008FEE727
:1002BC0060080008000000200C0000206008000806
:1002CC0000000010000000100C000020DC000020DA
:0802DC000000001000000010FA
:1002E40008B500F017F8000001230360014B0B6010
:1002F400704700BF0000002008B500F01DF8024B55
:10030400024A9A6008BD00BF00ED00E0000000084A
:1003140000F01AB8BFF34F8F0549064BCA6802F4C0
:10032400E0621343CB60BFF34F8F00BFFDE700BF14
:1003340000ED00E00400FA05024B4FF000629A6001
:10034400704700BF00ED00E0154B9A6802F00C0204
:10035400042A21D0082A21D159685A685B684902C5
:10036400C3F388134CBF0F490F4902F03F02B1FB9E
:10037400F2F253430A4A5268C2F301420132520074
:10038400B3FBF2F3064A09499268C2F303128A5C8A
:10039400D340074A13607047024BF3E7024BF1E77F
:1003A4000038024000127A000024F400C607000856
:1003B4000800002003683F4A9342F0B539D13E4912
:1003C4000A6B42F001020A6306791D687100032278
:1003D4008A40D44325EA02021A6045791F6805F071
:1003E40003028A40013D3A43012D1A600CD85A6831
:1003F4000125B54022EA05025A6082795D6802F05F
:100404000102B2402A435A609A6822409A60C27933
:100414009D6802F003028A402A439A60DA68144015
:10042400DC60027ADC6802F003028A402243DA606C
:10043400F0BD224A934204D11F490A6B42F00202E2
:10044400C1E71F4A934204D11B490A6B42F00402DC
:10045400B9E71C4A934204D117490A6B42F00802D7
:10046400B1E7194A934204D113490A6B42F01002CE
:10047400A9E7164A934204D10F490A6B42F02002BD
:10048400A1E7134A934204D10B490A6B42F040029C
:1004940099E7104A934204D107490A6B42F080025B
:1004A40091E70D4A93428FD103490A6B42F480725B
:1004B40089E700BF00000240003802400004024007
:1004C40000080240000C02400010024000140240E8
:1004D40000180240001C024000200240026901236F
:1004E4008B40134214BF012000207047124B134865
:1004F40093F9021093F90320114B586000F18830EE
:10050400586022B91A6942F000421A617047D868EB
:10051400C0030ED4186940F002001861186940EA5B
:10052400C1001861186940F480301861D868C003AC
:10053400FCD4013A0131E4E70D00002023016745B2
:10054400003C024007B504220DEB0200074900F00D
:100554002AF9019B43F00103019398470449054894
:1005640000F002F903B05DF804FB00BF0F000020A7
:10057400D6070008004400400149024800F0F4B8DE
:10058400F20700080044004070B5174E174C184D90
:100594001549204600F0F7F896F90130513B082B35
:1005A4001DD801A252F823F0D1050008E305000884
:1005B400E3050008E3050008D7050008DD05000889
:1005C40095050008E305000895050008FFF7D4FF2A
:1005D400DEE7FFF7B7FFDBE7FFF788FFD8E7294639
:1005E400204600F0C1F8D3E70D000020004400408D
:1005F40001080008024B1A6882F308885B681847F0
:100604000080000880B5304C96B04FF08073CDE97F
:10061400014301A802230393FFF7CCFE2B4B93E87D
:10062400070004AE86E8070003F10C0207CA07AD11
:1006340085E8070003F1180207CA0DF1280C8CE8BD
:10064400070003F1240207CA0DF1340989E8070001
:1006540003F1300207CA3C330DF1400888E8070073
:1006640093E8070013AF87E807006046FFF7A2FE90
:100674004846FFF79FFE4046FFF79CFE3846FFF7CB
:1006840099FE236A23F47F432362236A43F4EE43EF
:1006940023620F4B5A6A22F47F425A625A6A42F426
:1006A400EE4230465A6200F027F8284600F024F85B
:1006B40000212046FFF712FF012801D1FFF764FF54
:1006C400FFF798FFF4E700BF000002401808000895
:1006D400000402404FF080431A69D20709D51A6911
:1006E40022F001021A61034B1A6812B11A68013A26
:1006F4001A607047D80000200368154A93421ED13F
:1007040014490A6C42F400320A6441684A0802F54A
:10071400740202F51052B2FBF1F29A60DA6822F424
:10072400B052DA60DA6822F00C02DA60D968027A30
:100734000A43DA60DA6842F40052DA607047064A23
:100744009342E2D103490A6C42F48022DCE700BF01
:1007540000440040003802400048004003681B0683
:10076400FCD5C9B24160704708B54A1E12F9011F91
:1007740001B908BDFFF7F2FFF8E703689B06FCD553
:10078400406840B2704708B502461046FFF7F5FFCF
:100794000D2808700B4601F1010101D00A28F4D19B
:1007A40000221A7008BD0A44914200F1FF3300D1BF
:1007B400704710B511F8014B03F8014F9142F9D17C
:1007C40010BD000000000000000001020304060741
:1007D40008094A756D70656420746F2073706563D1
:1007E4006966696564206164647265737300566543
:1007F4007273696F6E203A203078310A00496E6353
:100804006F727265637420434D4420436F64650ABC
:100814000000000000440040802500000C0000009F
:1008240000480040802500000C0000000000024049
:100834000202000300000000000002400302000363
:1008440000000000000402400A020003000000004F
:0C085400000402400B0200030000000042
:0C0860000C000020000000000024F40048
:040000050800018965
:00000001FF
