:020000040800F2
:100000000000022055020008590200085B020008A7
:100010007102000873020008890200080000000055
:100020000000000000000000000000009F02000827
:10003000A102000800000000A3020008A5020008B9
:10004000B9020008B9020008B9020008B9020008A4
:10005000B9020008B9020008B9020008B902000894
:10006000B9020008B9020008B9020008B902000884
:10007000B9020008B9020008B9020008B902000874
:10008000B9020008B9020008B9020008B902000864
:10009000B9020008B9020008B9020008B902000854
:1000A000B9020008B9020008B9020008B902000844
:1000B000E1080008B9020008B9020008B902000806
:1000C000B9020008B9020008B9020008B902000824
:1000D000B9020008B9020008B9020008B902000814
:1000E000B9020008B9020008B9020008B902000804
:1000F000B9020008B9020008B9020008B9020008F4
:10010000B9020008B9020008B9020008B9020008E3
:10011000B9020008B9020008B9020008B9020008D3
:10012000B9020008B9020008B9020008B9020008C3
:10013000B9020008B9020008B9020008B9020008B3
:10014000B9020008B9020008B9020008B9020008A3
:10015000B9020008B9020008B9020008B902000893
:10016000B9020008B9020008B9020008B902000883
:10017000B9020008B9020008B90200080000000036
:10018000B9020008B902000807B500F0B7F8274B1C
:100190002748834226D3274A274900208A422CD366
:1001A00000F0B8F8254D264C01A9684600F09EF8ED
:1001B000641BA4100026B44228DC224D224C641B90
:1001C000A4100026B44226DCDDE9000100F00EFB9D
:1001D0001E4E1F4CA41B0546A410002C20DC2846F4
:1001E00000F080F8D3E900129C680C33891A94421D
:1001F000CFD9555815600432F9E752F8083B52F848
:10020000044C9C42CAD943F8040BFAE755F8043B66
:1002100098470136CFE755F8043B98470136D1E7B8
:10022000013C56F824309847D7E700BFBC020008CD
:10023000D4020008D4020008E4020008E402000826
:10024000E4020008E4020008E4020008E4020008F6
:10025000E402000814480047FEE71EF0040F0CBF3C
:10026000EFF30880EFF309807146104A1047FEE76C
:10027000FEE71EF0040F0CBFEFF30880EFF30980D8
:1002800071460B4A1047FEE71EF0040F0CBFEFF358
:100290000880EFF309807146064A1047FEE7FEE743
:1002A000FEE7FEE770470000890100086F020008C2
:0A02B000870200089D020008FEE727
:1002BC00000A0008000000200C000020000A0008C2
:1002CC0000000010000000100C000020DC000020DA
:0802DC000000001000000010FA
:1002E40008B500F017F8000001230360014B0B6010
:1002F400704700BF0000002008B500F01DF8024B55
:10030400024A9A6008BD00BF00ED00E0000000084A
:1003140000F01AB8BFF34F8F0549064BCA6802F4C0
:10032400E0621343CB60BFF34F8F00BFFDE700BF14
:1003340000ED00E00400FA05024B4FF000629A6001
:10034400704700BF00ED00E0154B9A6802F00C0204
:10035400042A21D0082A21D159685A685B684902C5
:10036400C3F388134CBF0F490F4902F03F02B1FB9E
:10037400F2F253430A4A5268C2F301420132520074
:10038400B3FBF2F3064A09499268C2F303128A5C8A
:10039400D340074A13607047024BF3E7024BF1E77F
:1003A4000038024000127A000024F4009409000886
:1003B4000800002003683F4A9342F0B539D13E4912
:1003C4000A6B42F001020A6306791D687100032278
:1003D4008A40D44325EA02021A6045791F6805F071
:1003E40003028A40013D3A43012D1A600CD85A6831
:1003F4000125B54022EA05025A6082795D6802F05F
:100404000102B2402A435A609A6822409A60C27933
:100414009D6802F003028A402A439A60DA68144015
:10042400DC60027ADC6802F003028A402243DA606C
:10043400F0BD224A934204D11F490A6B42F00202E2
:10044400C1E71F4A934204D11B490A6B42F00402DC
:10045400B9E71C4A934204D117490A6B42F00802D7
:10046400B1E7194A934204D113490A6B42F01002CE
:10047400A9E7164A934204D10F490A6B42F02002BD
:10048400A1E7134A934204D10B490A6B42F040029C
:1004940099E7104A934204D107490A6B42F080025B
:1004A40091E70D4A93428FD103490A6B42F480725B
:1004B40089E700BF00000240003802400004024007
:1004C40000080240000C02400010024000140240E8
:1004D40000180240001C024000200240026901236F
:1004E4008B40134214BF01200020704770B50B4CA1
:1004F4000E4620466FF05A01154600F033FA2046A6
:10050400022100F02FFA71B2204600F02BFA69B2F2
:100514002046BDE8704000F025BA00BF004400400A
:1005240070B5184B184C9E78DD78184B636003F156
:100534008833174863606FF05A0100F013FA1448C7
:10054400012100F00FFA1248002100F00BFA25B93E
:10055400236943F00043236170BDE368DA030ED4DA
:10056400236943F002032361236943EAC603236139
:10057400236943F480332361E368DB03FCD4013D46
:100584000136E4E70D000020003C024023016745EA
:100594000044004082B002AB03E90300074A9DF81F
:1005A4000110074B012908BF13461A6882F3088813
:1005B400044A93605B6802B0184700BF00800008DB
:1005C4000000040800ED00E0034A034610681860C8
:1005D40012791A711846704700000E08254B1A69E3
:1005E400002AB8BF244A13B5BEBF5A6002F188324C
:1005F4005A601A6922F0F8021A611A6942F0580224
:100604001A611A6942F002021A611A6942F48032CC
:100614001A61184BDA6812F48032FBD11C6924F099
:1006240002041C611C6924F440741C611C6944F4B8
:1006340000741C611C6944F001041C610F4B8DF8AB
:1006440000008DF80110ADF802208DF80420009A06
:100654001A60019A5A60074BDA68D203FCD41A690B
:1006640022F001021A611A6942F000421A6102B0D2
:1006740010BD00BF003C02402301674500000E0886
:100684002DE9FF476B4683E806000378D0F8025053
:100694009DF80140314E043B23F003022F4B1969AE
:1006A4000029BFBF2E49596001F188315960196989
:1006B40021F440711961196941F4007119611969D2
:1006C40041F001011961072153184FF0FF3C00F17B
:1006D400040E073D4FF001085A1A002A1EDC1F4B76
:1006E40020481A6922F001021A611A6942F0004294
:1006F4001A616FF05A0100F035F91A48012100F02F
:1007040031F91848002100F02DF9012C1ED10221E5
:10071400002004B0BDE8F047FFF760BFCDF80CC07F
:100724000A1803AF0EEB010912F801AB07F801AB8D
:100734004A45F9D1039A6A50F268D703FCD4F268A7
:10074400D20748BFC6F80C800431C5E7022C01D19A
:100754000121DDE704B0BDE8F08700BF003C0240A2
:1007640023016745004400402DE9F7436F4687E8BD
:1007740003001A4E1A4DDFF86C80DFF8649030469F
:1007840000F000F9C4B22C7064B96B78562B1BD0FE
:10079400572B0FD0512B1BD1224601212846FFF79E
:1007A400A5FEEAE7304600F0EDF8013C09F8010F38
:1007B400E4B2E9E73046612100F0D4F897E8060096
:1007C4002846FFF75DFFD8E72846FFF7A9FED4E7E0
:1007D4004146304600F0CCF8CFE700BF004400406B
:1007E4000D000020A40900082DE9804899B001AD4E
:1007F400374C2846FFF7E8FE4FF08073CDE90343FA
:1008040003A8022305939DF804A0FFF7D3FD314B01
:1008140093E8070006AF87E8070003F10C0207CA54
:1008240009AE86E8070003F1180207CA0DF1300C7F
:100834008CE8070003F1240207CA0DF13C0B8BE896
:10084400070003F1300207CA3C330DF1480989E877
:10085400070093E807000DF1540888E80700604694
:10086400FFF7A8FD5846FFF7A5FD4846FFF7A2FD90
:100874004046FFF79FFD236A23F47F432362236AE4
:1008840043F4EE432362144B5A6A22F47F425A62C1
:100894005A6A42F4EE4238465A6200F031F8304661
:1008A40000F02EF800212046FFF718FE012805D19C
:1008B4008DF804A095E80300FFF756FFBAF1010F85
:1008C400F6D08DF804A095E80300FFF763FEE9E78E
:1008D40000000240B8090008000402404FF08043C1
:1008E4001A69D20709D51A6922F001021A61034B69
:1008F4001A6812B11A68013A1A607047D8000020C9
:100904000368154A93421ED114490A6C42F400321A
:100914000A6441684A0802F5740202F51052B2FBF7
:10092400F1F29A60DA6822F4B052DA60DA6822F0FE
:100934000C02DA60D968027A0A43DA60DA6842F4AF
:100944000052DA607047064A9342E2D103490A6CC6
:1009540042F48022DCE700BF00440040003802403B
:100964000048004003681B06FCD5C9B241607047CB
:1009740008B54A1E12F8011F01B908BD49B2FFF7B4
:10098400F1FFF7E703689B06FCD5406840B2704767
:10099400000000000000000001020304060708092B
:1009A400496E636F727265637420434D4420436FD4
:1009B40064650A0000440040802500000C0000002B
:1009C40000480040802500000C00000000000240A8
:1009D40002020003000000000000024003020003C2
:1009E40000000000000402400A02000300000000AE
:0C09F400000402400B02000300000000A1
:0C0A00000C000020000000000024F400A6
:040000050800018965
:00000001FF
